:03000000020100FA
:0F0100007521FD7520007590FF8590208521B039
:0F010F00859020A202501D020119859020A203A5
:10011E005003020109780400D8FE00859020A20247
:10012E005013020109781400D8FE00859020A20316
:10013E005003020109781400D8FE00859020A20019
:10014E005030A2045022020157859020A206500C76
:10015E00D208D209C20F8521B0020157D208C209B6
:0F016E00D20F7590FF020109D208C2097590FFE8
:10017D00020109D209C2087590FF020109020109A5
:00000001FF
